:020000040000fa
:080000000002040000000000f2
:020000040000fa
:100400004f8820000eff27000e018800000000002a
:100410000c000700a0882000010020000f0007004a
:10042000000020000000e000020032000000020096
:100430000000000064080200000000000040da0034
:100440000000fe00000020000000e000020032007a
:10045000000020009001880000000600a102880032
:10046000800078000000eb001a003700e2804000b6
:1004700054a0b4009101ba00e280400054a0b4003e
:100480009102ba00e280400054a0b4000002eb00e8
:10049000472bde00f507b200a6018800602ce100c2
:1004a00008003a000049eb000201e80002003900b0
:1004b0003420ec0002f0a0008301e900f9ff3e00c7
:1004c000040037006128e100010032000082eb00e7
:1004d000040007001101ba000200e000e3ff3a0047
:1004e0000000060004d0a300e20f49001c00390000
:1004f000810278003549ba000201e80002003900a3
:100500003420ec0002f0a0008301e9000f0032006b
:100510002549ba000201e800020039003420ec004d
:1005200002f0a0008301e900080032000400e000ae
:100530000600320015c9ba000201e80002003900c5
:100540003420ec0002f0a0008301e9008180e80083
:1005500054a0b4000300e000e2ff3a0000000600ef
:100560009102ba00055978008301e900f7ff3200d3
:10057000c82ade00055978008301e900f3ff320044
:100580000400e000f1ff320011d9ba00eeff37009d
:080590000040da000000fe004b
:020000040000fa
:10000800c8020000c8020000c8020000c8020000c0
:10001800c8020000c8020000c8020000c8020000b0
:10002800c8020000c8020000c8020000c8020000a0
:10003800c8020000c8020000c8020000c802000090
:020000040000fa
:020000040000fa
:100598000000fa00dac2bf000080fb000000d100b2
:1005a800614060000080fb000080fa000000060047
:1005b8000000fa00dac2bf00614060000080fb0062
:1005c8000080fa00000006000400fa0020479800a6
:1005d800314798000040eb00004f780015003700c5
:1005e8003e409000e14f500002003a00120207001e
:1005f80001003700180207002e4090000004e000b8
:1006080006003d003e409000e14f500002003a00d5
:100618000d02070001003700130207002e4090006a
:100628000000fb0000004000204798001c02070063
:100638001e4fe80070c0b3009e4f1000e8ff340062
:100648000080fa00000006000800fa001007980071
:1006580021079800320798000000eb00000f78008f
:100668000b0037001e007800800078001e00900004
:10067800008140009e0078003e009000008040000d
:100688000000e80010407800004978001e0fe800dc
:100698009e0078002e009000808f5000f1ff3900f6
:1006a8000080fa00000006001400fa0060079800b5
:1006b8007107980002579800135798000040eb0004
:1006c800704798000040eb00604798000000eb007e
:1006d8005007980015003700cd010700acff070050
:1006e8000004e00003003a001e509000e14f500063
:1006f80006003200aeff07000004e00007003a00e1
:100708001e5090000004e00004003a00bb010700fe
:1007180010c0b3007047980008003700b701070001
:100728005e0090000000e80050079800de0090008e
:10073800e01f2000808f5000e7ff34007e409000cb
:100748000004e000920032000000eb00500798001f
:10075800310037000000eb00400798002200370006
:100768001e509000e14f500006003a005e009000d5
:100778000000e00003003a004e0090000000e00096
:10078800160032006e4090000000fb0000004000a0
:10079800604798009e0107001e509000e14f5000ee
:1007a80007003a007aff07000004e0000a00320060
:1007b8006e4090000004a0006047980006003700d3
:1007c8007bff07000004e000030032006e40900049
:1007d8000004a00060479800880107004e009000c0
:1007e8000000e800400798004e009000e70f500016
:1007f800dbff34005e009000800078006e009000ff
:1008080000804000ee409000014878005e009000b3
:100818000000e80050079800de0090007e0090007d
:10082800808f5000cbff39000000eb005007980084
:10083800040037009a0107005e0090000000e800fd
:10084800500798005e009000e90f5000f9ff34004f
:100858001e509000e14f50004a003a000040eb0063
:10086800504798000040eb0040479800fe00900079
:100878006e009000008040000000e9009040780081
:10088800514798006e00900090407800f0c3b30084
:1008980080cf500003003a0000c0eb0040479800aa
:1008a80004003700fe0090006e009000a7010700ca
:1008b80040479800de4090004e40900080cf5000a6
:1008c8002d003a000040eb00004f78000e509000d9
:1008d800e14f500004003a00c0852000100798003e
:1008e80040c0b300004f78000e509000e34f500016
:1008f80004003a00808520001007980040c0b3002b
:10090800004f78000e509000e24f500004003a006b
:100918004086200010079800f0c0b300004f780010
:100928000e509000e44f500004003a003087200039
:1009380010079800f0c0b300004f78000e509000e8
:10094800e64f500004003a00008620001007980087
:1009580040c0b300004f78001e00fb008000780004
:100968006e0190001e00900037ff07000000eb00aa
:10097800100f98000800370021002000110f980080
:10098800050037000000eb00100f98000200370048
:1009980011002000110f98001e0890000080fa0036
:1009a800000006001a00fa00604f9800714f980086
:1009b8000257980013579800245798003557980005
:1009c8000f007800400f98000f007800200f980063
:1009d80068004700ee48900001487800680047002a
:1009e800fe48900011409800680047008e50900023
:1009f80021409800680047009e50900031409800c0
:100a080068004700ae50900041409800e800470059
:100a18000040eb00d04098006800470061002000cb
:100a28004a0107003057980068004700be50900000
:100a380051409800fb0007000000eb0020079800d9
:100a480009003700ae0090006800470000804000b1
:100a58001040780011c0b300dbfe07002e009000a4
:100a68000000e800200798002e009000e50f5000d5
:100a7800f4ff34000a010700ff00070060c0b3005c
:100a8800204798000040eb0010479800ee4890007f
:100a980020c4b30080cf500008003200ee48900018
:100aa80090c4b30080cf500004003200ee4890009c
:100ab800a0c4b30080cf500002003a0010c1b300b8
:100ac800204798002e4090000000fb000000e8003e
:100ad8000000e8000000d100000040008f0078000e
:100ae800310f980080874700be0890000100e80099
:100af8000000d10000004000300f98003e08900030
:100b08003007980010c0b300004f7800ee489000fe
:100b180090c6b30080cf500002003a0030c0b30046
:100b2800004f7800ee48900030c4b30080cf5000ea
:100b380002003a0060c0b300004f7800ee48900011
:100b480020c4b30080cf500004003200ee4890006b
:100b5800a0c4b30080cf500002003a0020c0b30008
:100b6800004f7800ee48900090c4b30080cf50004a
:100b780002003a0040c0b300004f78000000eb00cc
:100b880020079800070037002e019000be00900053
:100b98000040eb0000f178002e0090000000e80013
:100ba800200798002e4090008000fb002e00900047
:100bb800808f5000f4ff3c002e4090008000fb0026
:100bc8003e00900013c0b3001e417800b6fe070037
:100bd800104798001e4090000000fb00ae0f9000e8
:100be800ce0f90000080fa00000006000600fa0010
:100bf8000040eb00204798000000eb00000f780051
:100c080002003700a60007001e0fe800f01f2000b2
:100c18009e0f1000fbff340075c8b300a4cab300d0
:100c280013c0b3000041eb008040eb0080c4b30068
:100c38005cff07000000eb00000f7800150037008c
:100c480055c6b3000042eb008041eb000041eb00c9
:100c58008040eb0070c7b30052ff0700d5ccb3004b
:100c68000042eb008041eb0002c1b30001c4b300b5
:100c780090c6b3004bff070058c8bf000004e0004f
:100c880003003d000000eb00200798000600370035
:100c98001e0fe800900020009e0f1000e8ff3400af
:100ca80050002000200798002e0090000080fa00d5
:100cb800000006000000fa008042eb000042eb0052
:100cc8008041eb000041eb008040eb0020c4b30002
:100cd80034ff07000000fb000080fa000000060057
:100ce8000000fa008042eb000042eb008041eb007c
:100cf8000041eb008040eb0030c4b30029ff07003f
:100d08000000fb000080fa00000006000000fa0066
:100d180063c8bf0021862000914078001286200019
:100d28001241780006862000164378008042eb00c6
:100d380000427800814178008640780070c4b30092
:100d480018ff07000000fb000080fa000000060002
:100d58000800fa0020479800314798004247980059
:100d6800534798008042eb005e429000ce419000cd
:100d78003e419000ae40900010c5b30009ff070047
:100d8800004f78001e04e00008003a008041eb00a4
:100d980000c1eb00212020004086200042fe070011
:100da8000000fb0030079800020037001e00fb001f
:100db800300798003e0090000080fa00000006000e
:100dc8000000fa00e082a900e482a8000000eb001d
:100dd800302788000080eb00c01688000000eb0078
:100de800d01688000000eb00e0168800d842a90061
:100df800020007000080fa00000006000000fa0068
:100e0800dc42a900310007000080fa00000006005b
:100e18000000fa00dc42a8002c0007000080fa005d
:100e2800000006000000fa00d822a900dc22a80071
:100e38000080fa00000006000000fa00dc22a90089
:100e48000080fa00000006000000fa00dc22a8007a
:100e58000080fa00000006000000fa00dc02a90089
:100e68000080fa00000006000000fa00dc02a8007a
:100e78000080fa00000006000000fa00d822a8004e
:100e8800dc22a9000080fa00000006000000fa0039
:100e9800d802a900dc02a8000080fa0000000600c1
:100ea8000000fa00dc42a80008000700dc42a900a4
:100eb800060007000080fa00000006000000fa00a3
:100ec800d802a9000080fa00000006000000fa001d
:100ed8008460a9000000eb000008880010002000d2
:100ee80010088800000028002008880084c0bf007f
:100ef800684060000004e000fcff32000000eb00e6
:100f0800200888000080fa00000006000000fa00af
:100f18008460a9000000eb00000888000080eb0056
:100f280010088800000228002008880084c0bf003c
:100f3800684060000004e000fcff32000000eb00a5
:100f4800200888000080fa00000006000a00fa0065
:100f580030079800014f98000040eb005047980078
:100f680090c8b300404798000040eb003047980015
:100f78000040eb00204798000e4890000000fb005e
:100f8800800078003e009000008040008000e9006a
:100f98000040eb00804878003e00900090407800c8
:100fa8005147980010c0b300104798003700370029
:100fb8001e4090000080fb00800078003e009000fa
:100fc8000080400090407800314798000040eb00d6
:100fd800004f7800270037005e4090000004e000d2
:100fe80004003d005e409000ce4090000140680043
:100ff800504798001e4090008080fb000e489000eb
:101008000000fb000000e900808f500003003a0058
:1010180070c0b3009e4f1000190032003e4090008f
:101028000004e0000a003d005e4090000000fb0064
:10103800000040000004a000504798003e40900087
:101048000000fb000000400030479800080037000f
:101058005e4090000000fb000000400050479800f0
:101068003e4090000000fb00000040003047980020
:101078001e4fe80071c0b3009ecf1000d6ff3600a7
:101088001e4090000040e800104798001e40900065
:101098008080fb000e4890000000fb00808f50000d
:1010a800c3ff35005e4090000000fb0000004000d8
:1010b8000004a0000000fb000080fa000000060009
:1010c8000000fa0091ff0700d922a800dbc2bf0088
:1010d800624060000004e000fcff320038ff0700b7
:1010e800c2fe0700f3fe0700fdfe070007ff07002a
:1010f8008001eb000001eb008000eb000000eb003a
:0c11080013ff07000080fa000000060042
:020000040000fa
:1011140050080000340000008000000000000000bf
:00000001FF
