:020000040000fa
:080000000002040000000000f2
:020000040000fa
:10040000cf8220000e7f22000e0188000000000035
:100410000c000700008620000100200011000700ea
:10042000000020000000e000020032000000020096
:10043000000000004e080200000000000040da004a
:100440000000fe004440a900000020000000e00081
:100450000300320000002000a00188004440a800f2
:100460000000060091018800800078000000eb0089
:1004700015003700e280400032a0b4009101ba00bc
:10048000e280400032a0b4009102ba00e280400055
:1004900032a0b4000002eb00472bde00f507b200eb
:1004a000602ce10004003a000059eb008301e900f0
:1004b000fdff3e00040037006128e100010032002a
:1004c0000082eb00040007001101ba000200e00006
:1004d000e8ff3a00000006003159ba008301e90044
:1004e0000c0032002159ba008301e90008003200f3
:1004f0000400e00003003a00e280400032a0b400b3
:10050000f5ff370011d9ba008301e900faff3a007c
:100510008100e800e180400032a0b4000000060045
:080520000040da000000fe00bb
:020000040000fa
:1000080090020000900200009002000090020000a0
:100018009002000090020000900200009002000090
:100028009002000090020000900200009002000080
:100038009002000090020000900200009002000070
:020000040000fa
:020000040000fa
:100528000400fa0020479800314798003e409000a8
:10053800e14f500002003a00900207000100370026
:10054800960207000040eb00004f78000f003700cc
:100558002e4090000004e00006003d003e40900060
:10056800e14f500002003a008802070001003700fe
:100578008e0207002e4090000000fb0000004000a3
:1005880020479800960207001e4fe80070c0b3008d
:100598009e4f1000eeff34000080fa0000000600b5
:1005a8000800fa0010079800210798003207980001
:1005b8000000eb00000f78000b0037001e007800e9
:1005c800800078001e009000008140009e007800a6
:1005d8003e009000008040000000e80010407800d5
:1005e800004978001e0fe8009e0078002e00900059
:1005f800808f5000f1ff39000080fa0000000600eb
:100608001400fa00600798007107980002579800d4
:10061800135798000040eb00704798000040eb002b
:10062800604798000000eb0050079800170037005b
:1006380048020700d4c2bf00624060000004e00026
:1006480003003a001e509000e14f500007003200ae
:10065800d4c2bf00614060000004e00007003a0017
:100668001e5090000004e00004003a003402070025
:1006780010c0b30070479800080037003002070028
:100688005e0090000000e80050079800de0090002f
:10069800e01f2000808f5000e5ff34007e4090006e
:1006a8000004e000940032000000eb0050079800be
:1006b800330037000000eb004007980024003700a3
:1006c8001e509000e14f500006003a005e00900076
:1006d8000000e00003003a004e0090000000e00037
:1006e800180032006e4090000000fb00000040003f
:1006f80060479800170207001e509000e14f500015
:1007080008003a00d4c2bf00624060000004e00064
:100718000b0032006e4090000004a0006047980073
:1007280007003700d4c2bf00614060000004e00049
:10073800030032006e4090000004a000604798005b
:10074800ff0107004e0090000000e80040079800f5
:100758004e009000e70f5000d9ff34005e00900073
:10076800800078006e00900000804000ee4090000d
:10077800014878005e0090000000e80050079800eb
:10078800de0090007e009000808f5000c9ff390085
:100798000000eb0050079800040037001002070023
:1007a8005e0090000000e800500798005e0090008e
:1007b800e90f5000f9ff34001e509000e14f50003f
:1007c8004a003a000040eb00504798000040eb0018
:1007d80040479800fe0090006e00900000804000a6
:1007e8000000e90090407800514798006e009000a2
:1007f80090407800f0c3b30080cf500003003a0067
:1008080000c0eb004047980004003700fe0090004d
:100818006e0090006601070040479800de40900097
:100828004e40900080cf50002d003a000040eb0071
:10083800004f78000e509000e14f500004003a003d
:10084800408020001007980040c0b300004f780097
:100858000e509000e34f500004003a000080200042
:100868001007980040c0b300004f78000e50900069
:10087800e24f500004003a00c080200010079800a2
:10088800f0c0b300004f78000e509000e44f5000c5
:1008980004003a00b081200010079800f0c0b300af
:1008a800004f78000e509000e64f500004003a00c8
:1008b800808020001007980040c0b300004f7800e7
:1008c8001e00fb00800078006e0190001e00900062
:1008d80033ff07000000eb00100f980008003700f6
:1008e80021002000110f9800050037000000eb00e0
:1008f800100f98000200370011002000110f980017
:100908001e0890000080fa00000006001a00fa0095
:10091800604f9800714f980002579800135798003d
:1009280024579800355798000f007800400f98001a
:100938000f007800200f980068004700ee489000ec
:100948000148780068004700fe4890001140980070
:10095800680047008e5090002140980068004700ca
:100968009e5090003140980068004700ae509000bb
:1009780041409800e80047000040eb00d040980054
:1009880068004700610020000901070030579800ff
:1009980068004700be50900051409800720107005f
:1009a8000000eb002007980009003700ae00900017
:1009b80068004700008040001040780011c0b30074
:1009c800d7fe07002e0090000000e80020079800de
:1009d8002e009000e50f5000f4ff3400800107005e
:1009e8007601070060c0b300204798000040eb0084
:1009f80010479800ee48900020c4b30080cf500004
:100a080008003200ee48900090c4b30080cf500038
:100a180004003200ee489000a0c4b30080cf50001c
:100a280002003a0010c1b300204798002e40900001
:100a38000000fb000000e8000000e8000000d10012
:100a4800000040008f007800310f98008087470031
:100a5800be0890000100e8000000d100000040003e
:100a6800300f98003e0890003007980010c0b3007f
:100a7800004f7800ee48900090c6b30080cf500039
:100a880002003a0030c0b300004f7800ee489000f2
:100a980030c4b30080cf500002003a0060c0b300f9
:100aa800004f7800ee48900020c4b30080cf50007b
:100ab80004003200ee489000a0c4b30080cf50007c
:100ac80002003a0020c0b300004f7800ee489000c2
:100ad80090c4b30080cf500002003a0040c0b30079
:100ae800004f78000000eb0020079800070037004f
:100af8002e019000be0090000040eb0000f178004d
:100b08002e0090000000e800200798002e4090007a
:100b18008000fb002e009000808f5000f4ff3c0006
:100b28002e4090008000fb003e00900013c0b300f0
:100b38001e417800b2fe0700104798001e40900042
:100b48000000fb00ae0f9000ce0f90000080fa006e
:100b5800000006000600fa000040eb00204798005d
:100b68000000eb00000f7800020037001c010700ae
:100b78001e0fe800f01f20009e0f1000fbff34003e
:100b880075c8b300a4cab30013c0b3000041eb009a
:100b98008040eb0080c4b3005cff07000000eb005e
:100ba800000f78001600370055c6b3000042eb006e
:100bb8008041eb000041eb008040eb0070c7b300c0
:100bc80052ff0700d5ccb3000042eb008041eb0098
:100bd80002c1b30001c4b30090c6b3004bff0700c5
:100be80000c8bf000004e00004003d00dc82a8004b
:100bf8000000eb0020079800060037001e0fe800f1
:100c0800900020009e0f1000e7ff340050002000e5
:100c1800200798002e0090000080fa0000000600cf
:100c28000000fa008042eb000042eb008041eb003c
:100c38000041eb008040eb0020c4b30033ff070005
:100c48000000fb000080fa00000006000000fa0027
:100c58008042eb000042eb008041eb000041eb00da
:100c68008040eb0030c4b30028ff07000000fb0001
:100c78000080fa00000006000000fa000bc8bf0060
:100c8800a1802000914078009280200012417800d5
:100c980086802000164378008042eb0000427800ee
:100ca800814178008640780070c4b30017ff0700c0
:100cb8000000fb000080fa00000006000800fa00af
:100cc80020479800314798004247980053479800ba
:100cd8008042eb005e429000ce4190003e41900081
:100ce800ae40900010c5b30008ff0700004f780021
:100cf8001e04e00008003a008041eb0000c1eb0050
:100d080021202000c08020003dfe07000000fb00dd
:100d180030079800020037001e00fb0030079800db
:100d28003e0090000080fa00000006000400fa006f
:100d380020479800314798000040eb00004f7800aa
:100d4800160037003e409000e14f500002003a0084
:100d58008a0007000100370090000700ad00070077
:100d68002e4090000004e00006003d003e40900048
:100d7800e14f500002003a008400070001003700ec
:100d88008a0007002e4090000000fb000000400091
:100d980020479800920007001e4fe80070c0b3007b
:100da8009e4f1000e7ff34000080fa0000000600a4
:100db8000a00fa0030079800014f98000040eb0045
:100dc8005047980090c8b300404798000040eb0097
:100dd800304798000040eb00204798000e489000ec
:100de8000000fb00800078003e009000008040007a
:100df8008000e9000040eb00804878003e00900049
:100e0800904078005147980010c0b30010479800f0
:100e1800370037001e4090000080fb0080007800fb
:100e28003e009000008040009040780031479800d4
:100e38000040eb00004f7800270037005e4090002c
:100e48000004e00004003d005e409000ce409000a9
:100e580001406800504798001e4090008080fb00c9
:100e68000e4890000000fb000000e900808f500051
:100e780003003a0070c0b3009e4f10001900320002
:100e88003e4090000004e0000a003d005e409000f3
:100e98000000fb00000040000004a000504798003c
:100ea8003e4090000000fb000000400030479800e2
:100eb800080037005e4090000000fb000000400082
:100ec800504798003e4090000000fb0000004000a2
:100ed800304798001e4fe80071c0b3009ecf100045
:100ee800d6ff36001e4090000040e80010479800ea
:100ef8001e4090008080fb000e4890000000fb0020
:100f0800808f5000c3ff35005e4090000000fb005a
:100f1800000040000004a0000000fb000080fa0070
:100f2800000006000000fa000000eb00b016880080
:100f3800d242a900020007000080fa000000060063
:100f48000000fa00d642a900320007000080fa002b
:100f5800000006000000fa00d642a8002d00070095
:100f68000080fa00000006000000fa00d222a90062
:100f7800d622a8000080fa00000006000000fa004f
:100f8800d622a9000080fa00000006000000fa003e
:100f9800d622a8000080fa00000006000000fa002f
:100fa800d602a9000080fa00000006000000fa003e
:100fb800d602a8000080fa00000006000000fa002f
:100fc800d222a8000080fa00000006000000fa0003
:100fd800d202a900d602a8000080fa00000006008c
:100fe8000000fa00d642a8000a000700090007001e
:100ff800d642a90007000700060007000080fa0093
:10100800000006000000fa00d202a9000080fa00e1
:10101800000006000000fa008460a9000000eb0050
:1010280000088800800020001008880000002800c0
:101038002008880084c0bf00684060000004e00009
:10104800fcff32000000eb00200888000080fa0056
:10105800000006000000fa008460a9000000eb0010
:1010680000088800f0ff200010088800000228000f
:101078002008880084c0bf00684060000004e000c9
:10108800fcff32000000eb00200888000080fa0016
:10109800000006000000fa00eeff07000080eb00e9
:1010a800901688009fff070011002000a00a20006a
:0810b8001bfd0700fcff3700df
:020000040000fa
:1010c000000800002c0000000000000000000000ec
:00000001FF
